:100000000C9462000C948A000C948A000C948A0070
:100010000C948A000C948A000C948A000C948A0038
:100020000C948A000C948A000C948A000C948A0028
:100030000C948A000C948A000C948A000C948A0018
:100040000C94AE070C948A000C947C070C94560711
:100050000C948A000C948A000C948A000C948A00F8
:100060000C948A000C948A000000000025002800EF
:100070002B0000000000240027002A0000000000E0
:1000800023002600290004040404040404040202DA
:100090000202020203030303030301020408102007
:1000A0004080010204081020010204081020000012
:1000B0000008000201000003040700000000000027
:1000C0000000F80711241FBECFEFD8E0DEBFCDBF80
:1000D00022E0AAEBB1E001C01D92AA37B207E1F716
:1000E00011E0A0E0B1E0EAEEFAE102C005900D9265
:1000F000AA3BB107D9F710E0C2E6D0E004C02197CF
:10010000FE010E94500BC136D107C9F70E94360884
:100110000C94730D0C940000CF92DF92EF92FF923B
:100120000F931F93CF93DF936C017A018B01C0E093
:10013000D0E0CE15DF0589F0D8016D918D01D60193
:10014000ED91FC910190F081E02DC6010995892B7C
:1001500011F47E0102C02196ECCFC701DF91CF914F
:100160001F910F91FF90EF90DF90CF900895089529
:1001700080E090E00895FC01538D448D252F30E000
:10018000842F90E0821B930B541710F0CF960895A4
:1001900001970895FC01918D828D981761F0828DF1
:1001A000DF01A80FB11D5D968C91928D9F5F9F73AB
:1001B000928F90E008958FEF9FEF0895FC01918D4D
:1001C000828D981731F0828DE80FF11D858D90E0BA
:1001D00008958FEF9FEF0895FC01918D228D892F57
:1001E00090E0805C9F4F821B91098F73992708953F
:1001F00084EC91E00E94EC0021E0892B09F420E0DE
:10020000822F0895FC01848DDF01A80FB11DA35A30
:10021000BF4F2C91848D90E001968F739927848F26
:10022000A689B7892C93A089B1898C9180648C931D
:10023000938D848D981306C00288F389E02D808108
:100240008F7D80830895EF92FF920F931F93CF933A
:10025000DF93EC0181E0888F9B8D8C8D981305C016
:10026000E889F989808185FD24C0F62E0B8D10E088
:100270000F5F1F4F0F731127E02E8C8DE8120CC0FB
:100280000FB607FCFACFE889F989808185FFF5CFA1
:10029000CE010E940201F1CF8B8DFE01E80FF11D0E
:1002A000E35AFF4FF0820B8FEA89FB8980818062DD
:1002B00007C0EE89FF896083E889F98980818064BD
:1002C000808381E090E0DF91CF911F910F91FF90AB
:1002D000EF900895CF93DF93EC01888D8823C9F0C8
:1002E000EA89FB89808185FD05C0A889B9898C913F
:1002F00086FD0FC00FB607FCF5CF808185FFF2CFDA
:10030000A889B9898C9185FFEDCFCE010E940201A9
:10031000E7CFDF91CF91089580E090E0892B29F01D
:100320000E94F80081110C9400000895833081F040
:1003300028F4813099F08230A1F008958730A9F037
:100340008830B9F08430D1F4809180008F7D03C073
:10035000809180008F7780938000089584B58F7797
:1003600002C084B58F7D84BD08958091B0008F77E1
:1003700003C08091B0008F7D8093B00008951F93DB
:10038000CF93DF93282F30E0F901E255FF4F84919E
:10039000F901E656FF4FD491F901EA57FF4FC49196
:1003A000CC23C9F0162F81110E949601EC2FF0E0AA
:1003B000EE0FFF1FE859FF4FA591B4918FB7F89446
:1003C000111105C09C91ED2FE095E92302C0EC913D
:1003D000ED2BEC938FBFDF91CF911F910895CF93B9
:1003E000DF9390E0FC01E656FF4F2491FC01EA57B1
:1003F000FF4F8491882361F190E0880F991FFC01E1
:10040000EE58FF4FC591D491FC01E859FF4FA591DB
:10041000B491611109C09FB7F89488812095822317
:100420008883EC912E230BC0623061F49FB7F8945F
:100430003881822F809583238883EC912E2B2C93F7
:100440009FBF06C08FB7F894E8812E2B28838FBFFB
:10045000DF91CF9108953FB7F8948091BF019091BB
:10046000C001A091C101B091C20126B5A89B05C0F1
:100470002F3F19F00196A11DB11D3FBFBA2FA92F23
:10048000982F8827820F911DA11DB11DBC01CD01A0
:1004900042E0660F771F881F991F4A95D1F708958C
:1004A0008F929F92AF92BF92CF92DF92EF92FF9284
:1004B0006B017C010E942B024B015C01C114D10431
:1004C000E104F104F1F00E942B02DC01CB01881958
:1004D0009909AA09BB09883E9340A105B10570F3AB
:1004E00021E0C21AD108E108F10888EE880E83E005
:1004F000981EA11CB11CC114D104E104F10419F728
:10050000DDCFFF90EF90DF90CF90BF90AF909F90A6
:100510008F900895DC01ED91FD91BD010190F08176
:10052000E02D40E0099591E0811190E0892F089538
:1005300008958EBD00000DB407FEFDCF8EB5089561
:100540008CBD9DBD0895CF92DF92EF92FF920F93E5
:100550001F93CF93DF9300D0CDB7DEB78C01F62E7B
:10056000FC018289938949835A830E94A00260E03A
:10057000F80186850E94BF0182E10E9499024981AB
:10058000E42EC42E5A81D52E8C2D8E198F1530F461
:10059000F60181916F010E949902F6CF61E0F801A6
:1005A00086850F900F90DF91CF911F910F91FF9053
:1005B000EF90DF90CF900C94BF011F93CF93DF9308
:1005C000EC01162F8A899B890E94A00260E08E852B
:1005D0000E94BF01812F80680E94990280E00E94E2
:1005E0009902182F61E08E850E94BF01812FDF9153
:1005F000CF911F910895EF92FF921F93CF93DF93B6
:100600001F92CDB7DEB77C01162FFC01828993893A
:1006100049830E94A00260E0F70186850E94BF0125
:10062000812F0E9499024981842F0E94990261E0E2
:10063000F70186850F90DF91CF911F91FF90EF908A
:100640000C94BF01CF92DF92EF92FF920F931F9312
:10065000CF93DF93EC016B01142F790140E062E04E
:100660000E94FB0244E06AE0CE010E94FB0240E8E7
:1006700064E1CE010E94FB02A601612FCE010E941F
:10068000A30243E062E0CE010E94FB0208E813E10E
:100690006AE0CE010E94DD0282FF13C040E062E00A
:1006A000CE010E94FB0264E4CE010E94DD02F7014C
:1006B000808362E4CE010E94DD02F701818380E045
:1006C00004C00150110921F783E0DF91CF911F9100
:1006D0000F91FF90EF90DF90CF9008954F925F922F
:1006E0006F927F928F929F92AF92BF92CF92DF9242
:1006F000EF92FF920F931F93CF93DF9300D0CDB76C
:10070000DEB74C012B01D42E3901E114F10419F0AC
:10071000F701408101C040E0B42EF0E1CF9EB00C63
:10072000112440E062E0C4010E94FB024FE768E050
:10073000C4010E94FB0240E864E1C4010E94FB0284
:10074000A2016D2DC4010E94A3024B2D6AE1C401D8
:100750000E94FB024CE062E0C4010E94FB026AE1DD
:10076000C4010E94DD02482F40686AE1C4010E9472
:10077000FB0280ED482E87E0582E68E0C4010E94FD
:10078000DD02982F907341F480FD04C081E0481A87
:10079000510899F783E09FC06CE0C4010E94DD021C
:1007A000D82E837109F096C06114710409F458C001
:1007B0000115110509F454C064E1C4010E94DD0271
:1007C000B82EF80180818B1508F47EC0B082BB2062
:1007D000E1F1F401828993890E94A00260E0F401B2
:1007E00086850E94BF0182E90E949902CC20A1F077
:1007F0008FEF90E02C0101C0440CCA94EAF782E923
:100800000E94990284214094F30190814922842915
:100810008083CC24C39401C0C12CBA944C2C512C9D
:10082000460C571CCB1438F482E90E949902F2015D
:100830008083C394F3CF80E00E949902F201808309
:1008400061E0F40186850E94BF0168E1C4010E9455
:10085000DD028770E114F10421F0F701808301C00B
:1008600080E0D3FC33C06114710491F101151105CE
:1008700079F1AA2069F1F8014081413019F48430FE
:1008800019F420C0423010F487E025C08111FCCF5C
:1008900042509E012F5F3F4FB301C4010E942203CB
:1008A000811119C0F8018081680E711CF301329723
:1008B000908189819813E8CF319690818A8198132D
:1008C000E3CF06C08FEF07C084E005C082E003C01D
:1008D00080E001C081E00F900F90DF91CF911F91D8
:1008E0000F91FF90EF90DF90CF90BF90AF909F90CF
:1008F0008F907F906F905F904F9008958F929F920E
:10090000AF92CF92EF92FF920F931F93CF93DF930B
:1009100000D000D01F92CDB7DEB74C0182E08D83AE
:1009200040E064E2C4010E94FB0240E066E2C401D0
:100930000E94FB0246E268E4C4010E94FB0286E2D8
:100940008C838D81823040F16CE1C4010E94DD0214
:10095000482F4F776CE1C4010E94FB0287E08B8334
:10096000A12CC12CCE0103967C018E010B5F1F4F81
:100970009E012F5F3F4F41E0BE016C5F7F4FC4017E
:100980000E946E0381110BC08D81823039F481E0A9
:100990009B81911104C008C084E001C081E091E016
:1009A000823019F090E001C091E0892F0F900F90F4
:1009B0000F900F900F90DF91CF911F910F91FF90AB
:1009C000EF90CF90AF909F908F9008952F923F928D
:1009D0004F925F926F927F928F929F92AF92BF924F
:1009E000CF92DF92EF92FF920F931F93CF93DF93FB
:1009F000CDB7DEB72D970FB6F894DEBF0FBECDBFD3
:100A0000413508F00FC1342E3B014C016CE10E94CE
:100A1000DD02482F4F776CE1C4010E94FB02BB242A
:100A2000B39442E0B41691F083E0B816E1F091E09F
:100A3000B912FCC083E989833320D1F081E0F3014E
:100A40009081953008F480E0D12C17C085E9898326
:100A5000332081F081E0F3019081983008F480E048
:100A600053E0D52E0AC087E9898346E0D42E04C01E
:100A7000D12C02C033E0D32E80E0532DF8EFDF9E5F
:100A8000500D112457FD50E0882321F098E89B83F6
:100A900043E001C042E021E0952F977009F420E087
:100AA000952F959595959595290F21F4882311F10A
:100AB000585F20C0811102C094E001C093E0291763
:100AC00008F4922F20E030E06D2D70E0E42FE20F6B
:100AD000A1E0B0E0AC0FBD1FAE0FB11DF901E60FF4
:100AE000F71FE60DF71DE181EC932F5F3F4F2917AC
:100AF00068F3DCCF23E0222E5032FCF040E74A833B
:100B00009C818B8189279D8189279E8189278F835D
:100B10009E01285F3F4F47E0BE016F5F7F4FC401DA
:100B20005D870E9422035D858111CCC01B862A86C9
:100B3000CE0107962C0179E01EC0952F97709B87F8
:100B4000252F25952595259582E0820F392FE0E107
:100B50008E9F300D11243A8371E0911101C070E035
:100B6000780F44244394512C4C0E5D1E480E511CAA
:100B700087E0821B8A87CB844C2D4295407F4C0DA9
:100B80006AE1C4015D877C870E94FB02A12CCE0133
:100B90000B967C018E01065F1F4F92017C85472FCB
:100BA000BE016F5F7F4FC4010E946E035D8582307E
:100BB00099F56CE1C4010E94DD025D8585FD34C0BC
:100BC0008F7109F480E2282F30E0452F550F550B27
:100BD000421753075CF5582F822F8595859585958B
:100BE00091E0980F422F477081E009F480E0890F6F
:100BF000E1E0F0E0EC0FFD1FE80FF11D215031099D
:100C00002770332781E090E001C0880F2A95EAF72A
:100C10009081892B808370CF811154C0503244F46D
:100C200050E26CCF86E04EC082E04CC085E04AC006
:100C30008B81883809F043C033E023E080E090E006
:100C40006D2D70E0FC01E60FF71FE60DF71D432F39
:100C5000480FA1E0B0E0AC0FBD1FA40FB11D4C9137
:100C600041830196821770F38A85833021F58B8545
:100C7000811121C09E012D5F3F4F41E0B201C401AF
:100C80000E94220381111EC09B81F2018181981371
:100C900014C09C818281981310C0808182FF02C0A1
:100CA000B394BFCEF30183878B2D880FB80EB39416
:100CB000B08280E007C081E005C087E003C032E079
:100CC00024E0BCCF2D960FB6F894DEBF0FBECDBF8B
:100CD000DF91CF911F910F91FF90EF90DF90CF9018
:100CE000BF90AF909F908F907F906F905F904F904C
:100CF0003F902F900895009769F0FC01019000202B
:100D0000E9F73197AF01481B590BBC0184EC91E026
:100D10000C948C0080E090E00895CF93DF930E94C4
:100D20007B06EC0182E291E00E947B068C0F9D1F06
:100D3000DF91CF9108950E944D0D0F931F93CF9394
:100D4000DF93EC0188819981009729F02A813B810A
:100D50002617370788F48B016F5F7F4F0E94830C43
:100D6000009761F0998388831B830A832C813D81DE
:100D7000232B11F4FC01108281E001C080E0DF919F
:100D8000CF911F910F910895EF92FF920F931F93B0
:100D9000CF93DF93FB0124813581E080F180FC015A
:100DA00004811581E114F10411F480E017C02115CC
:100DB000310599F0EC01020F131FB8010E949D0646
:100DC000882399F3288139818C819D81B701820F15
:100DD000931F0E946C0D1D830C8381E0DF91CF91E6
:100DE0001F910F91FF90EF900895EF92FF920F9354
:100DF0001F93CF93DF93EC017B018A01BA010E941C
:100E00009D062881398181110DC02115310519F008
:100E1000C9010E94EB0B198218821D821C821B8261
:100E20001A8206C01D830C83B701C9010E946C0D94
:100E3000CE01DF91CF911F910F91FF90EF90089518
:100E4000CF93DF93EC016115710559F0FB0101901F
:100E50000020E9F73197AF01461B570B0E94F506BA
:100E60000CC088819981009711F00E94EB0B1982C8
:100E700018821D821C821B821A82CE01DF91CF91C3
:100E80000895FC011182108213821282158214824D
:100E90006115710551F0FB0101900020E9F73197D0
:100EA000AF01461B570B0C94F50608951F920F9245
:100EB0000FB60F9211242F933F934F935F936F932D
:100EC0007F938F939F93AF93BF93EF93FF9384ECA4
:100ED00091E00E940201FF91EF91BF91AF919F912C
:100EE0008F917F916F915F914F913F912F910F90D3
:100EF0000FBE0F901F9018951F920F920FB60F9272
:100F000011242F938F939F93EF93FF93E091D4013C
:100F1000F091D5018081E091DA01F091DB0182FD51
:100F200012C090818091DD018F5F8F732091DE016F
:100F3000821751F0E091DD01F0E0EC53FE4F958F08
:100F40008093DD0101C08081FF91EF919F918F918E
:100F50002F910F900FBE0F901F9018951F920F9218
:100F60000FB60F9211242F933F938F939F93AF93BC
:100F7000BF938091BB019091BC01A091BD01B09144
:100F8000BE013091BA0123E0230F2D3720F40196E2
:100F9000A11DB11D05C026E8230F0296A11DB11D9C
:100FA0002093BA018093BB019093BC01A093BD0133
:100FB000B093BE018091BF019091C001A091C10189
:100FC000B091C2010196A11DB11D8093BF01909304
:100FD000C001A093C101B093C201BF91AF919F9195
:100FE0008F913F912F910F900FBE0F901F901895EA
:100FF000E4ECF1E01382128288EE93E0A0E0B0E02E
:1010000084839583A683B7838AE091E0918380836C
:1010100085EC90E09587848784EC90E097878687BD
:1010200080EC90E0918B808B81EC90E0938B828BB5
:1010300082EC90E0958B848B86EC90E0978B868B8E
:10104000118E128E138E148EE2E6F2E08CE191E0A6
:10105000918380838AE0868789E0878781E692E0B2
:10106000918B808B83E5828B138A0895CF93DF93D6
:10107000CDB7DEB7E9970FB6F894DEBF0FBECDBF90
:10108000789484B5826084BD84B5816084BD85B563
:10109000826085BD85B5816085BD80916E0081606F
:1010A00080936E0010928100809181008260809315
:1010B0008100809181008160809381008091800017
:1010C0008160809380008091B10084608093B10042
:1010D0008091B00081608093B00080917A0084603C
:1010E00080937A0080917A00826080937A00809168
:1010F0007A00816080937A0080917A008068809382
:101100007A001092C100E091D401F091D50182E003
:101110008083E091D001F091D1011082E091D20161
:10112000F091D3018FEC80831092DC01E091D80123
:10113000F091D90186E08083E091D601F091D7014A
:10114000808180618083E091D601F091D701808118
:1011500088608083E091D601F091D701808180681A
:101160008083E091D601F091D70180818F7D8083CB
:101170001FB7F8948091C301811127C0E0E9F0E026
:101180008491E4EAF0E09491E82FF0E0EE0FFF1F85
:10119000EE58FF4FA591B491EC91E92321F461E061
:1011A0008AE00E94BF0161E08AE00E94EF018CB5F5
:1011B00080618CBD8CB580648CBD61E08DE00E9447
:1011C000EF0161E08BE00E94EF018091C3018F5F2E
:1011D0008093C3011FBF61E0809170020E94EF0104
:1011E00061E0809170020E94BF01809171028F3F87
:1011F00041F44FE062E082E692E00E94FB0213E0DD
:1012000025C060E00E94EF012091710230E0F901F9
:10121000E255FF4F8491F901E656FF4F0491F90121
:10122000EA57FF4F14911123F9F081110E949601A2
:10123000E12FF0E0EE0FFF1FE458FF4FA591B491AE
:10124000EC91E02389F0D5CF1150F1F062E370E02A
:1012500080E090E00E94500262E082E692E00E940C
:10126000DD0284FF11C0F0CF61E0809171020E9425
:10127000EF0161E0809171020E94BF0162E370E0C2
:1012800080E090E00E94500240E064E282E692E05A
:101290000E94FB0240E066E282E692E00E94FB02CE
:1012A00046E268E482E692E00E94FB0240E864E5E0
:1012B00082E692E00E94FB0249EA66E582E692E05D
:1012C0000E94FB0243E068E582E692E00E94FB0296
:1012D00048EE6AE582E692E00E94FB0240E46AE2A0
:1012E00082E692E00E94FB024DE362E282E692E037
:1012F0000E94FB0268E282E692E00E94DD02982FE3
:101300009370933039F0482F436068E282E692E0B0
:101310000E94FB0288E291E00E948D0682E291E049
:101320000E947B065E018EE2A80EB11C82E692E06E
:101330000E947E04882309F44FC182E692E00E9455
:101340008A02982E882309F447C18FE491E00E9415
:101350007B0664E271E0CE01C4960E94410761E61B
:1013600071E0CE0182960E94410766E771E0CE01EE
:1013700088960E944107F12C80916402F81608F0CB
:101380006EC00F2D10E00E591D4FF8018381803182
:1013900018F087E991E002C085E291E00E947B06A7
:1013A000F801438150E060E070E019A2FE01B196BF
:1013B000DB01CA018F709927AA27BB2724E0769505
:1013C0006795579547952A95D1F731978A309105BA
:1013D000A105B10510F4805D01C0895C80834115D1
:1013E00051056105710521F7CF010E947B06F801C7
:1013F0008381803118F067E971E002C065E271E035
:10140000CE0101960E944107BE016F5F7F4FCE0162
:10141000C4960E94C40689819A810E94EB0BF80150
:1014200083811FA61EA619AA18AA1BAA1AAA40E100
:10143000BE016F5F7F4F90E00E94EF0ABE016F5FB9
:101440007F4FC5010E942007B501CE01C4960E94BE
:10145000C4068EA59FA50E94EB0BF3948DCF82E26C
:1014600091E00E947B0682E891E00E947B060CA935
:101470001DA90115110531F4CE0182967C01C12C04
:10148000D12C58C0F80180818823B1F3082E000CBC
:10149000990B0E94520DF80181938F01F3CF6624BE
:1014A0006394712C64E271E0CE0101960E944107C1
:1014B00088AD99AD6816790608F447C08D819E8184
:1014C000F7012481358109811A818217930709F078
:1014D00067C0608171810115110509F04FC0611568
:1014E000710509F44FC0009709F44CC0FB0120813D
:1014F00030E088279927821B930B88248394892BBB
:1015000009F04EC0C8010E94EB0B882069F089E900
:1015100091E00E948D0664E670E080E090E00E9419
:101520005002CC24C394D12CF6E0EF0EF11CEA1447
:10153000FB04D1F108AD19AD0115110509F0AFCFCC
:10154000612C712C01E010E0ADCF8017910708F4F9
:101550008C01ECA9FDA9E00FF11F808010826CA91D
:101560007DA9660D771DCE0101960E9420078CA9EA
:101570009DA9FC01E00FF11F8082A0CF61157105CC
:1015800059F4ADCF0115110569F0892B59F0F80117
:101590002081822F90E0B1CFC8010E94630DADCFB2
:1015A000812CB0CF892CAECFCD2851F48BEA91E0BD
:1015B0000E948D0664E670E080E090E00E94500298
:1015C00088A599A50E94EB0B8AA19BA10E94EB0B19
:1015D0008CA99DA90E94EB0B0E948C01A7CEBB2772
:1015E000FB015527AA27880F991FAA1FA41710F0DF
:1015F000A41B83955051B9F7A05DAA3308F0A95DEB
:10160000A193009779F7B111B1931192CB010C948A
:10161000090BDC01FC01672F71917723E1F7329709
:1016200004C07C916D9370836291AE17BF07C8F3BD
:1016300008952F923F924F925F926F927F928F9276
:101640009F92AF92BF92CF92DF92EF92FF920F9351
:101650001F93CF93DF93CDB7DEB7CA1BDB0B0FB65B
:10166000F894DEBF0FBECDBF09942A883988488818
:101670005F846E847D848C849B84AA84B984C884AE
:10168000DF80EE80FD800C811B81AA81B981CE0FA5
:10169000D11D0FB6F894DEBF0FBECDBFED0108958A
:1016A000EE0FFF1F0590F491E02D0994CF93DF9387
:1016B0008230910510F482E090E0E0917802F091A0
:1016C000790220E030E0C0E0D0E0309711F14081B5
:1016D000518148175907C0F04817590761F48281B2
:1016E0009381209719F09B838A832BC09093790272
:1016F0008093780226C02115310519F0421753074F
:1017000018F49A01BE01DF01EF010280F381E02DA0
:10171000DCCF2115310509F1281B390B24303105A7
:1017200090F412968D919C9113976115710521F09B
:10173000FB019383828304C09093790280937802A3
:10174000FD01329644C0FD01E20FF31F8193919396
:10175000225031092D933C933AC02091760230916A
:101760007702232B41F42091020130910301309341
:10177000770220937602209100013091010121151A
:10178000310541F42DB73EB7409104015091050158
:10179000241B350BE0917602F0917702E217F307F4
:1017A000A0F42E1B3F0B2817390778F0AC014E5FD1
:1017B0005F4F2417350748F04E0F5F1F5093770295
:1017C000409376028193919302C0E0E0F0E0CF0174
:1017D000DF91CF9108950F931F93CF93DF930097DD
:1017E00009F48CC0FC0132971382128200917802B6
:1017F000109179020115110581F420813181820F48
:10180000931F20917602309177022817390779F5D6
:10181000F0937702E093760271C0D80140E050E087
:10182000AE17BF0750F412962D913C911397AD015E
:101830002115310509F1D901F3CF9D01DA01338377
:10184000228360817181860F971F8217930769F445
:10185000EC0128813981260F371F2E5F3F4F3183DE
:1018600020838A819B8193838283452B29F4F09383
:101870007902E093780242C01396FC93EE9312979C
:10188000ED01499159919E01240F351FE217F3078D
:1018900071F480819181840F951F029611969C931B
:1018A0008E938281938113969C938E931297E0E09E
:1018B000F0E0D80112968D919C911397009719F042
:1018C000F8018C01F6CF8D919C9198012E5F3F4FCE
:1018D000820F931F209176023091770228173907E3
:1018E00069F4309729F4109279021092780202C0BC
:1018F000138212821093770200937602DF91CF91C8
:101900001F910F910895A0E0B0E0E9E8FCE00C948D
:101910001D0BEC01009721F4CB010E94560BB8C0BF
:10192000FC01E60FF71F9C0122503109E217F30773
:1019300008F4ACC0D9010D911C9111970617170737
:10194000B0F00530110508F49FC0C8010497861750
:10195000970708F499C002501109061B170B019351
:1019600011936D937C93CF010E94EB0B8DC05B01B3
:10197000A01AB10A4C01800E911EA0917802B0917C
:10198000790240E050E0E12CF12C109709F44AC0B4
:10199000A815B905D1F56D907C901197630182E08F
:1019A000C80ED11CCA14DB0480F1A3014A195B09DB
:1019B0006A0182E0C80ED11C1296BC901297139651
:1019C000AC91B5E0CB16D10440F0B282A383518331
:1019D0004083D9016D937C930AC00E5F1F4FC301F2
:1019E000800F911FF90191838083EB2DFA2FE11471
:1019F000F10431F0D7011396FC93EE93129744C093
:101A0000F0937902E09378023FC08D919C911197F9
:101A10004817590708F4AC017D0112960D90BC914E
:101A2000A02DB3CF80917602909177028815990509
:101A3000E1F446175707C8F4809100019091010125
:101A4000009741F48DB79EB7409104015091050174
:101A5000841B950BE817F907C8F4F0937702E0931D
:101A60007602F901718360830FC0CB010E94560B8F
:101A70007C01009759F0A801BE010E945A0DCE01C9
:101A80000E94EB0BC70104C0CE0102C080E090E0D1
:101A9000CDB7DEB7EEE00C94390B81E090E0F8941E
:101AA0000C94730D9111089581568A5108F4805257
:101AB00085580895FB01DC0102C001900D92415050
:101AC0005040D8F70895FB01DC018D9101908019F9
:101AD0000110D9F3990B0895FB01DC0101900D92DF
:0A1AE0000020E1F70895F894FFCF0D
:101AEA0000007A0280000000000023018C00BB0085
:101AFA006A01EC00CA00DE0000000000E6047E0471
:101B0A008A020D0A00203000417070726F78696D88
:101B1A0061746520796F7572206361726420746FD5
:101B2A0020746865207265616465722E2E2E0055D8
:101B3A004944207461672072656164696E67203A5E
:101B4A0000303420363320334220443220423720BA
:101B5A00343920383000323420394320323320449B
:101B6A0039004361726420737461747573204D6522
:101B7A007373616765203A2000417574686F7269F2
:101B8A007A656420616363657373002041636365EA
:0A1B9A0073732064656E69656400D2
:00000001FF
